:100000000C942A000C9447000C9447000C94470071
:100010000C9447000C9447000C9447000C94470044
:100020000C9447000C9447000C9447000C94470034
:100030000C9447000C9447000C9447000C94470024
:100040000C9447000C9447000C9447000C94470014
:100050000C94470011241FBECFE5D8E0DEBFCDBF12
:1000600010E0A0E6B0E0E0E4FDE302C005900D92F0
:10007000AC3DB107D9F711E0ACEDB0E001C01D9285
:10008000A735B107E1F70E946A150C949E1E0C94E7
:100090000000EF92FF920F931F937B018C0120E0F1
:1000A00030E040E05FE40E94490388238CF0C801FF
:1000B000B70120E030E040E05FE40E94C1010E940F
:1000C000A9039B01AC01205030404040504806C07D
:1000D000C801B7010E94A9039B01AC01B901CA0183
:1000E0001F910F91FF90EF900895A0E0B0E0EBE733
:1000F000F0E00C944E19DC012B01FA019C91923036
:1001000008F439C1EB018881823008F433C194309E
:1001100069F4843009F02FC111969C91119789815F
:10012000981709F428C1A0EBB0E025C1843009F488
:1001300021C18230A9F4923009F01DC19A01AD01AC
:1001400088E0EA010990AE01E90109929E0181501F
:10015000C1F7E201898111969C918923818308C1AD
:10016000923009F407C112962D903C901397EB0141
:100170008A819B811496AD90BD90CD90DC901797AD
:10018000EC80FD800E811F819101281B390BB90184
:1001900037FF04C066277727621B730B6032710537
:1001A0000CF061C0121613066CF537014801062EDB
:1001B00004C096948794779467940A94D2F721E0C8
:1001C00030E040E050E004C0220F331F441F551FB1
:1001D0006A95D2F721503040404050402E213F21B7
:1001E00040235123211531054105510521F021E01E
:1001F00030E040E050E079018A01E628F72808293C
:1002000019293CC0232BD1F1260E371E350146019A
:10021000062E04C096948794779467940A94D2F734
:1002200021E030E040E050E004C0220F331F441FC3
:10023000551F6A95D2F721503040404050402A2146
:100240003B214C215D21211531054105510521F04E
:1002500021E030E040E050E059016A01A628B728CB
:10026000C828D9280BC0821593052CF01C01AA249C
:10027000BB24650103C0EE24FF24870111969C91E5
:10028000D20111968C91981709F445C0992339F041
:10029000A80197012A193B094C095D0906C0A6016E
:1002A00095012E193F09400B510B57FD08C01182D3
:1002B0003382228224833583468357831DC081E0A5
:1002C00081833382228288279927DC01821B930B4A
:1002D000A40BB50B84839583A683B7830DC0220F2F
:1002E000331F441F551F24833583468357838281E0
:1002F000938101979383828324813581468157813D
:10030000DA01C9010197A109B1098F5F9F4FAF4F72
:10031000BF4328F30BC0918333822282EA0CFB1C7B
:100320000C1D1D1DE482F5820683178383E0808304
:10033000248135814681578157FF1AC0C901AA27F8
:1003400097FDA095BA2F81709070A070B0705695EF
:10035000479537952795822B932BA42BB52B848318
:100360009583A683B7838281938101969383828349
:10037000DF0101C0D201CD01CDB7DEB7E2E10C94BF
:100380006A19A0E2B0E0E7ECF1E00C945A19698335
:100390007A838B839C832D833E834F835887E9E048
:1003A000EE2EF12CEC0EFD1ECE010196B7010E943F
:1003B000D2048E010F5E1F4FCE010596B8010E9438
:1003C000D2048A8991E089278A8BC701B801AE01DE
:1003D000475E5F4F0E9475000E94FD03A096E6E015
:1003E0000C947619A0E2B0E0E8EFF1E00C945A1911
:1003F00069837A838B839C832D833E834F835887C5
:10040000F9E0EF2EF12CEC0EFD1ECE010196B701A6
:100410000E94D2048E010F5E1F4FCE010596B801D7
:100420000E94D204C701B801AE01475E5F4F0E942F
:1004300075000E94FD03A096E6E00C947619A0E2F8
:10044000B0E0E5E2F2E00C944E1969837A838B8385
:100450009C832D833E834F835887CE010196BE0136
:10046000675F7F4F0E94D204CE010596BE016F5E8A
:100470007F4F0E94D2049985923088F0898982301A
:10048000C8F0943019F4823051F404C0843029F457
:10049000923081F480EB90E0C6C0923049F420E0C5
:1004A0009A858A89981321E02A87CE010996BBC0D4
:1004B000823049F420E09A858A89981321E02A8BBA
:1004C000CE014196B0C02D843E844F8458886D88FB
:1004D0007E888F88988CEE24FF248701AA24BB2471
:1004E000650140E050E060E070E0E0E0F0E0C10174
:1004F00081709070892BE9F0E60CF71C081D191D1E
:100500009A01AB012A0D3B1D4C1D5D1D80E090E062
:10051000A0E0B0E0E614F7040805190520F481E036
:1005200090E0A0E0B0E0BA01A901480F591F6A1F8E
:100530007B1FAA0CBB1CCC1CDD1C97FE08C081E0F5
:1005400090E0A0E0B0E0A82AB92ACA2ADB2A3196B6
:10055000E032F10549F0660C771C881C991C569412
:10056000479437942794C3CFFA85EA892B893C892D
:100570008B859C85280F391F2E5F3F4F17C0CA01FE
:1005800081709070892B61F016950795F794E79428
:1005900080E090E0A0E0B0E8E82AF92A0A2B1B2BC3
:1005A00076956795579547952F5F3F4F77FDE7CF36
:1005B0000CC0440F551F661F771F17FD4160EE0CDE
:1005C000FF1C001F111F21503040403090E05907A0
:1005D00090E0690790E4790760F32B8F3C8FDB0193
:1005E000CA018F779070A070B07080349105A1051A
:1005F000B10561F447FD0AC0E114F10401051105DC
:1006000029F0405C5F4F6F4F7F4F40781A8EFE1786
:1006100011F081E08A8F4D8F5E8F6F8F78A383E01A
:10062000898FCE0149960E94FD03A096E2E10C94C9
:100630006A19A8E1B0E0EFE1F3E00C945A1969837C
:100640007A838B839C832D833E834F83588789E0F5
:10065000E82EF12CEC0EFD1ECE010196B7010E9492
:10066000D2048E010F5E1F4FCE010596B8010E9485
:10067000D2048985823040F08989823028F0C70110
:10068000B8010E944A0501C08FEF6896E6E00C941D
:100690007619A8E1B0E0EFE4F3E00C945A1969830D
:1006A0007A838B839C832D833E834F83588789E095
:1006B000E82EF12CEC0EFD1ECE010196B7010E9432
:1006C000D2048E010F5E1F4FCE010596B8010E9425
:1006D000D2048985823040F08989823028F0C701B0
:1006E000B8010E944A0501C08FEF6896E6E00C94BD
:1006F0007619A8E1B0E0EFE7F3E00C945A196983AA
:100700007A838B839C832D833E834F83588789E034
:10071000E82EF12CEC0EFD1ECE010196B7010E94D1
:10072000D2048E010F5E1F4FCE010596B8010E94C4
:10073000D2048985823040F08989823028F0C7014F
:10074000B8010E944A0501C081E06896E6E00C9479
:100750007619ACE0B0E0EFEAF3E00C945E1969833F
:100760007A838B839C83CE010196BE016B5F7F4FA2
:100770000E94D2048D81823061F1823050F1843048
:1007800021F48E81882351F12EC02F81388537FDC9
:1007900020C06E812F3131051CF06623F9F023C093
:1007A0008EE190E0821B930B29853A854B855C8511
:1007B00004C056954795379527958A95D2F76623B5
:1007C000B1F050954095309521953F4F4F4F5F4F79
:1007D0000EC020E030E040E050E009C02FEF3FEFD6
:1007E0004FEF5FE704C020E030E040E050E8B9019F
:1007F000CA012C96E2E00C947A19DF92EF92FF92F4
:100800000F931F93FC01E480F58006811781D1804E
:100810008081823048F480E090E0A0E1B0E0E82AF6
:10082000F92A0A2B1B2BA5C0843009F49FC0823003
:1008300021F4EE24FF24870105C0E114F104010531
:10084000110519F4E0E0F0E096C0628173819FEF3A
:10085000623879070CF05BC022E83FEF261B370BAC
:100860002A3131052CF020E030E040E050E02AC091
:10087000B801A701022E04C0769567955795479554
:100880000A94D2F781E090E0A0E0B0E004C0880FC5
:10089000991FAA1FBB1F2A95D2F70197A109B10979
:1008A0008E219F21A023B1230097A105B10521F03E
:1008B00081E090E0A0E0B0E09A01AB01282B392B59
:1008C0004A2B5B2BDA01C9018F779070A070B07052
:1008D00080349105A105B10539F427FF09C0205CDA
:1008E0003F4F4F4F5F4F04C0215C3F4F4F4F5F4F13
:1008F000E0E0F0E02030A0E03A07A0E04A07A0E402
:100900005A0710F0E1E0F0E079018A0127C0603871
:10091000710564F5FB01E158FF4FD801C7018F77DE
:100920009070A070B07080349105A105B10539F4C4
:10093000E7FE0DC080E490E0A0E0B0E004C08FE3EB
:1009400090E0A0E0B0E0E80EF91E0A1F1B1F17FFA1
:1009500005C016950795F794E794319687E01695AC
:100960000795F794E7948A95D1F705C0EE24FF2404
:100970008701EFEFF0E06E2F679566276795902F60
:100980009F77D794DD24D7948E2F8695492F462BB9
:10099000582F5D29B701CA011F910F91FF90EF9069
:1009A000DF900895FC01DB01408151812281622F9B
:1009B0006F7770E0221F2227221F9381892F880FD3
:1009C000822B282F30E0991F9927991F11969C930D
:1009D000119721153105A9F54115510561057105DD
:1009E00011F482E037C082E89FEF13969C938E93B8
:1009F00012979A01AB0167E0220F331F441F551F66
:100A00006A95D1F783E08C930DC0220F331F441FEA
:100A1000551F12968D919C911397019713969C9355
:100A20008E931297203080E0380780E0480780E4FA
:100A3000580758F314962D933D934D935C93179755
:100A400008952F3F310579F4411551056105710570
:100A500019F484E08C93089564FF03C081E08C93C3
:100A600012C01C9210C02F57304013963C932E9307
:100A7000129783E08C9387E0440F551F661F771F02
:100A80008A95D1F7706414964D935D936D937C9322
:100A9000179708951F93DC01FB019C91923008F495
:100AA00047C08081823008F443C0943051F41196DD
:100AB0001C91843099F58181682F70E0611B710968
:100AC0003FC0843021F0923031F48230B9F181811D
:100AD000882389F12DC011961C9111978230F1F075
:100AE00081811817D9F412962D913C911397828128
:100AF00093818217930794F028173907BCF0149656
:100B00008D919D910D90BC91A02D248135814681C0
:100B10005781281739074A075B0718F4112341F05A
:100B20000AC082179307A407B50740F4112319F0F0
:100B300061E070E005C06FEF7FEF02C060E070E041
:100B4000CB011F910895DF93CF930F92CDB7DEB7FE
:100B5000198227C08981882F90E0FC01E254FF4F61
:100B6000908180E0692F41E00E94CB0E8981882F1F
:100B700090E0FC01EE53FF4F908180E0692F40E050
:100B80000E94CB0E8981882F90E0FC01EE53FF4F2D
:100B9000908180E0692F41E00E94CB0F89818F5FB7
:100BA000898389818430B0F20F90CF91DF910895CD
:100BB000DF93CF9300D000D0CDB7DEB71B820FC03C
:100BC0008B81882F90E0FC01E254FF4F908180E000
:100BD000692F41E00E94CB0F8B818F5F8B838B81CC
:100BE000843070F31A8243C08A81882F90E0FC0120
:100BF000E254FF4F908180E0692F40E00E94CB0FCC
:100C0000198223C08981882F90E0FC01EE53FF4FA9
:100C1000908180E0692F0E94CA11882399F489810C
:100C2000482F50E08A81282F30E0CA01880F991F91
:100C3000880F991F820F931FFC01E453FF4F80819F
:100C40008C831BC089818F5F898389818430D0F236
:100C50008A81882F90E0FC01E254FF4F908180E070
:100C6000692F41E00E94CB0F8A818F5F8A838A813E
:100C7000843008F4B9CF8FE38C838C810F900F9070
:100C80000F900F90CF91DF910895DF93CF93CDB761
:100C9000DEB7E9970FB6F894DEBF0FBECDBF83E095
:100CA00060E041E00E94CB0E83E061E041E00E9401
:100CB000CB0E83E062E041E00E94CB0E19AE0FC084
:100CC00089AD882F90E0FC01EA53FF4F908182E0CC
:100CD000692F41E00E94CB0E89AD8F5F89AF89AD4E
:100CE000843070F380E090E0A0EFB1E48DAB9EAB78
:100CF000AFABB8AF6DA97EA98FA998AD20E030E069
:100D00004AEF54E40E941F02DC01CB0189AB9AAB8D
:100D1000ABABBCAB69A97AA98BA99CA920E030E058
:100D200040E85FE30E94790388232CF481E090E09F
:100D300098AB8FA73FC069A97AA98BA99CA920E08D
:100D40003FEF4FE757E40E94190318164CF56DA9C1
:100D50007EA98FA998AD20E030E040E251E40E94E6
:100D60001F02DC01CB01BC01CD010E944900DC0166
:100D7000CB0198AB8FA70FC088EC90E09EA78DA702
:100D80008DA59EA50197F1F79EA78DA78FA598A980
:100D9000019798AB8FA78FA598A9009769F714C002
:100DA00069A97AA98BA99CA90E944900DC01CB0101
:100DB00098AB8FA78FA598A99CA78BA78BA59CA55F
:100DC0000197F1F79CA78BA780E20E94580880E268
:100DD0000E94580880E80E94580880E090E0A0E84F
:100DE000BFE38FA398A7A9A7BAA76FA178A589A5E4
:100DF0009AA520E030E04AEF54E40E941F02DC0193
:100E0000CB018BA39CA3ADA3BEA36BA17CA18DA1A1
:100E10009EA120E030E040E85FE30E947903882350
:100E20002CF481E090E09AA389A33FC06BA17CA140
:100E30008DA19EA120E03FEF4FE757E40E941903E8
:100E400018164CF56FA178A589A59AA520E030E089
:100E500040E251E40E941F02DC01CB01BC01CD0144
:100E60000E944900DC01CB019AA389A30FC088EC42
:100E700090E098A38F8F8F8D98A10197F1F798A399
:100E80008F8F89A19AA101979AA389A389A19AA179
:100E9000009769F714C06BA17CA18DA19EA10E944F
:100EA0004900DC01CB019AA389A389A19AA19E8F55
:100EB0008D8F8D8D9E8D0197F1F79E8F8D8F80E0A8
:100EC0000E94580880EC0E94580880E090E0A0E85A
:100ED000BFE3898F9A8FAB8FBC8F698D7A8D8B8D95
:100EE0009C8D20E030E04AEF54E40E941F02DC01B8
:100EF000CB018D8B9E8BAF8BB88F6D897E898F894F
:100F0000988D20E030E040E85FE30E947903882379
:100F10002CF481E090E09C8B8B8B3FC06D897E89A7
:100F20008F89988D20E03FEF4FE757E40E94190327
:100F300018164CF5698D7A8D8B8D9C8D20E030E0F4
:100F400040E251E40E941F02DC01CB01BC01CD0153
:100F50000E944900DC01CB019C8B8B8B0FC088EC7D
:100F600090E09A8B898B89899A890197F1F79A8BFE
:100F7000898B8B899C8901979C8B8B8B8B899C8916
:100F8000009769F714C06D897E898F89988D0E94BA
:100F90004900DC01CB019C8B8B8B8B899C89988BC6
:100FA0008F878F8598890197F1F7988B8F8780E0DD
:100FB0000E94580880E10E94580880E090E0A0E07C
:100FC000B0E48B879C87AD87BE876B857C858D85DC
:100FD0009E8520E030E04AEF54E40E941F02DC01CD
:100FE000CB018F839887A987BA876F817885898598
:100FF0009A8520E030E040E85FE30E94790388238F
:101000002CF481E090E09E838D833FC06F817885D2
:1010100089859A8520E03FEF4FE757E40E94190346
:1010200018164CF56B857C858D859E8520E030E01B
:1010300040E251E40E941F02DC01CB01BC01CD0162
:101040000E944900DC01CB019E838D830FC088EC98
:1010500090E09C838B838B819C810197F1F79C832B
:101060008B838D819E8101979E838D838D819E814F
:10107000009769F714C06F81788589859A850E94E9
:101080004900DC01CB019E838D838D819E819A83F3
:10109000898389819A810197F1F79A838983E996F7
:1010A0000FB6F894DEBF0FBECDBFCF91DF9108958C
:1010B000DF93CF93CDB7DEB76E970FB6F894DEBF50
:1010C0000FBECDBF8E8F83E060E040E00E94CB0F6B
:1010D00083E061E040E00E94CB0F84E08D8F1FC071
:1010E0008D8D882F90E00497FC01EA53FF4F4081DB
:1010F0008E8D282F30E08D8D882F90E0B90102C0B1
:10110000759567958A95E2F7CB01982F917082E0EB
:10111000642F492F0E94CB0F8D8D8F5F8D8F8D8D0A
:101120008830F0F283E062E041E00E94CB0F80E083
:1011300090E0A0E8BFE3898F9A8FAB8FBC8F698D59
:101140007A8D8B8D9C8D20E030E04AEF54E40E9434
:101150001F02DC01CB018D8B9E8BAF8BB88F6D890D
:101160007E898F89988D20E030E040E85FE30E941F
:10117000790388232CF481E090E09C8B8B8B3FC01B
:101180006D897E898F89988D20E03FEF4FE757E486
:101190000E94190318164CF5698D7A8D8B8D9C8DE4
:1011A00020E030E040E251E40E941F02DC01CB016C
:1011B000BC01CD010E944900DC01CB019C8B8B8BD3
:1011C0000FC088EC90E09A8B898B89899A89019766
:1011D000F1F79A8B898B8B899C8901979C8B8B8BE0
:1011E0008B899C89009769F714C06D897E898F89E6
:1011F000988D0E944900DC01CB019C8B8B8B8B89E5
:101200009C89988B8F878F8598890197F1F7988BA8
:101210008F8783E062E040E00E94CB0F80E090E0A7
:10122000A0E0B0E48B879C87AD87BE876B857C850B
:101230008D859E8520E030E04AEF54E40E941F0235
:10124000DC01CB018F839887A987BA876F81788566
:1012500089859A8520E030E040E85FE30E947903C9
:1012600088232CF481E090E09E838D833FC06F81C2
:10127000788589859A8520E03FEF4FE757E40E9403
:10128000190318164CF56B857C858D859E8520E0AD
:1012900030E040E251E40E941F02DC01CB01BC01BE
:1012A000CD010E944900DC01CB019E838D830FC0DC
:1012B00088EC90E09C838B838B819C810197F1F774
:1012C0009C838B838D819E8101979E838D838D81ED
:1012D0009E81009769F714C06F81788589859A850A
:1012E0000E944900DC01CB019E838D838D819E810C
:1012F0009A83898389819A810197F1F79A838983F7
:101300006E960FB6F894DEBF0FBECDBFCF91DF91C2
:101310000895DF93CF93CDB7DEB7AD970FB6F894AE
:10132000DEBF0FBECDBF8DA783E060E041E00E942D
:10133000CB0F83E061E040E00E94CB0F84E08CA7FC
:101340001FC08CA5882F90E00497FC01EA53FF4F43
:1013500040818DA5282F30E08CA5882F90E0B90121
:1013600002C0759567958A95E2F7CB01982F917029
:1013700082E0642F492F0E94CB0F8CA58F5F8CA732
:101380008CA58830F0F283E062E041E00E94CB0F50
:1013900080E090E0A0E8BFE38FA398A7A9A7BAA731
:1013A0006FA178A589A59AA520E030E04AEF54E422
:1013B0000E941F02DC01CB018BA39CA3ADA3BEA3A3
:1013C0006BA17CA18DA19EA120E030E040E85FE30D
:1013D0000E94790388232CF481E090E09AA389A3EA
:1013E0003FC06BA17CA18DA19EA120E03FEF4FE704
:1013F00057E40E94190318164CF56FA178A589A52A
:101400009AA520E030E040E251E40E941F02DC0196
:10141000CB01BC01CD010E944900DC01CB019AA3A4
:1014200089A30FC088EC90E098A38F8F8F8D98A12F
:101430000197F1F798A38F8F89A19AA101979AA399
:1014400089A389A19AA1009769F714C06BA17CA117
:101450008DA19EA10E944900DC01CB019AA389A322
:1014600089A19AA19E8F8D8F8D8D9E8D0197F1F709
:101470009E8F8D8F83E062E040E00E94CB0F1BA621
:101480001EC08BA5882F90E0FC01EA53FF4F4081DE
:101490008DA5282F30E08BA5882F90E0B90102C0E0
:1014A000759567958A95E2F7CB01982F917082E048
:1014B000642F492F0E94CB0F8BA58F5F8BA78BA525
:1014C0008430F8F283E062E041E00E94CB0F80E0DC
:1014D00090E0A0E8BFE3898F9A8FAB8FBC8F698DB6
:1014E0007A8D8B8D9C8D20E030E04AEF54E40E9491
:1014F0001F02DC01CB018D8B9E8BAF8BB88F6D896A
:101500007E898F89988D20E030E040E85FE30E947B
:10151000790388232CF481E090E09C8B8B8B3FC077
:101520006D897E898F89988D20E03FEF4FE757E4E2
:101530000E94190318164CF5698D7A8D8B8D9C8D40
:1015400020E030E040E251E40E941F02DC01CB01C8
:10155000BC01CD010E944900DC01CB019C8B8B8B2F
:101560000FC088EC90E09A8B898B89899A890197C2
:10157000F1F79A8B898B8B899C8901979C8B8B8B3C
:101580008B899C89009769F714C06D897E898F8942
:10159000988D0E944900DC01CB019C8B8B8B8B8941
:1015A0009C89988B8F878F8598890197F1F7988B05
:1015B0008F8783E062E040E00E94CB0F80E090E004
:1015C000A0E0B0E48B879C87AD87BE876B857C8568
:1015D0008D859E8520E030E04AEF54E40E941F0292
:1015E000DC01CB018F839887A987BA876F817885C3
:1015F00089859A8520E030E040E85FE30E94790326
:1016000088232CF481E090E09E838D833FC06F811E
:10161000788589859A8520E03FEF4FE757E40E945F
:10162000190318164CF56B857C858D859E8520E009
:1016300030E040E251E40E941F02DC01CB01BC011A
:10164000CD010E944900DC01CB019E838D830FC038
:1016500088EC90E09C838B838B819C810197F1F7D0
:101660009C838B838D819E8101979E838D838D8149
:101670009E81009769F714C06F81788589859A8566
:101680000E944900DC01CB019E838D838D819E8168
:101690009A83898389819A810197F1F79A83898353
:1016A000AD960FB6F894DEBF0FBECDBFCF91DF91E0
:1016B0000895DF93CF93CDB7DEB7AD970FB6F8940B
:1016C000DEBF0FBECDBF8DA783E060E040E00E948B
:1016D000CB0F83E061E040E00E94CB0F84E08CA759
:1016E0001FC08CA5882F90E00497FC01EA53FF4FA0
:1016F00040818DA5282F30E08CA5882F90E0B9017E
:1017000002C0759567958A95E2F7CB01982F917085
:1017100082E0642F492F0E94CB0F8CA58F5F8CA78E
:101720008CA58830F0F283E062E041E00E94CB0FAC
:1017300080E090E0A0E8BFE38FA398A7A9A7BAA78D
:101740006FA178A589A59AA520E030E04AEF54E47E
:101750000E941F02DC01CB018BA39CA3ADA3BEA3FF
:101760006BA17CA18DA19EA120E030E040E85FE369
:101770000E94790388232CF481E090E09AA389A346
:101780003FC06BA17CA18DA19EA120E03FEF4FE760
:1017900057E40E94190318164CF56FA178A589A586
:1017A0009AA520E030E040E251E40E941F02DC01F3
:1017B000CB01BC01CD010E944900DC01CB019AA301
:1017C00089A30FC088EC90E098A38F8F8F8D98A18C
:1017D0000197F1F798A38F8F89A19AA101979AA3F6
:1017E00089A389A19AA1009769F714C06BA17CA174
:1017F0008DA19EA10E944900DC01CB019AA389A37F
:1018000089A19AA19E8F8D8F8D8D9E8D0197F1F765
:101810009E8F8D8F83E062E040E00E94CB0F1BA67D
:101820001EC08BA5882F90E0FC01EA53FF4F40813A
:101830008DA5282F30E08BA5882F90E0B90102C03C
:10184000759567958A95E2F7CB01982F917082E0A4
:10185000642F492F0E94CB0F8BA58F5F8BA78BA581
:101860008430F8F283E062E041E00E94CB0F80E038
:1018700090E0A0E8BFE3898F9A8FAB8FBC8F698D12
:101880007A8D8B8D9C8D20E030E04AEF54E40E94ED
:101890001F02DC01CB018D8B9E8BAF8BB88F6D89C6
:1018A0007E898F89988D20E030E040E85FE30E94D8
:1018B000790388232CF481E090E09C8B8B8B3FC0D4
:1018C0006D897E898F89988D20E03FEF4FE757E43F
:1018D0000E94190318164CF5698D7A8D8B8D9C8D9D
:1018E00020E030E040E251E40E941F02DC01CB0125
:1018F000BC01CD010E944900DC01CB019C8B8B8B8C
:101900000FC088EC90E09A8B898B89899A8901971E
:10191000F1F79A8B898B8B899C8901979C8B8B8B98
:101920008B899C89009769F714C06D897E898F899E
:10193000988D0E944900DC01CB019C8B8B8B8B899D
:101940009C89988B8F878F8598890197F1F7988B61
:101950008F8783E062E040E00E94CB0F80E090E060
:10196000A0E0B0E48B879C87AD87BE876B857C85C4
:101970008D859E8520E030E04AEF54E40E941F02EE
:10198000DC01CB018F839887A987BA876F8178851F
:1019900089859A8520E030E040E85FE30E94790382
:1019A00088232CF481E090E09E838D833FC06F817B
:1019B000788589859A8520E03FEF4FE757E40E94BC
:1019C000190318164CF56B857C858D859E8520E066
:1019D00030E040E251E40E941F02DC01CB01BC0177
:1019E000CD010E944900DC01CB019E838D830FC095
:1019F00088EC90E09C838B838B819C810197F1F72D
:101A00009C838B838D819E8101979E838D838D81A5
:101A10009E81009769F714C06F81788589859A85C2
:101A20000E944900DC01CB019E838D838D819E81C4
:101A30009A83898389819A810197F1F79A838983AF
:101A4000AD960FB6F894DEBF0FBECDBFCF91DF913C
:101A50000895DF93CF9300D00F92CDB7DEB79B836D
:101A60008A8319820EC08981282F30E08A819B8168
:101A7000FC01E20FF31F80810E94890989818F5F39
:101A800089838981282F30E08A819B81FC01E20FC4
:101A9000F31F8081882339F70F900F900F90CF911B
:101AA000DF910895DF93CF93CDB7DEB729970FB6B7
:101AB000F894DEBF0FBECDBF99878887888599854A
:101AC0009F838E831D820DC08E819F812AE030E02E
:101AD000B9010E942719CB019F838E838D818F5F6F
:101AE0008D838E819F81009779F781E08A833EC044
:101AF00081E090E09C838B83198211C08B819C8153
:101B00009C01220F331FC901880F991F880F991F4D
:101B1000820F931F9C838B8389818F5F8983898147
:101B2000482F50E08D81282F30E08A81882F90E067
:101B3000B901681B790BCB0148175907FCF288855E
:101B400099852B813C81B9010E942719CB01805DC9
:101B50000E948909888599852B813C81B9010E9461
:101B60002719998788878A818F5F8A839A818D81D7
:101B7000981708F4BDCF8885805D0E948909299651
:101B80000FB6F894DEBF0FBECDBFCF91DF910895A1
:101B9000DF93CF93CDB7DEB72E970FB6F894DEBFA5
:101BA0000FBECDBF81E00E94590B80E090E0A0EA1B
:101BB000B0E48B879C87AD87BE876B857C858D85E0
:101BC0009E8520E030E04AEF54E40E941F02DC01D1
:101BD000CB018F839887A987BA876F81788589859C
:101BE0009A8520E030E040E85FE30E947903882393
:101BF0002CF481E090E09E838D833FC06F817885D7
:101C000089859A8520E03FEF4FE757E40E9419034A
:101C100018164CF56B857C858D859E8520E030E01F
:101C200040E251E40E941F02DC01CB01BC01CD0166
:101C30000E944900DC01CB019E838D830FC088EC9C
:101C400090E09C838B838B819C810197F1F79C832F
:101C50008B838D819E8101979E838D838D819E8153
:101C6000009769F714C06F81788589859A850E94ED
:101C70004900DC01CB019E838D838D819E819A83F7
:101C8000898389819A810197F1F79A8389832E96B6
:101C90000FB6F894DEBF0FBECDBFCF91DF91089590
:101CA000DF93CF93CDB7DEB788E10E94590BCF9178
:101CB000DF910895DF93CF93CDB7DEB78CE10E941B
:101CC000590BCF91DF910895DF93CF9300D00F92FE
:101CD000CDB7DEB78A836B838A81882319F48B8121
:101CE000898306C08A81813019F48B81805C898365
:101CF000898180580E94590B0F900F900F90CF91BF
:101D0000DF910895DF93CF9300D000D00F92CDB72D
:101D1000DEB79C838B836D838D81882F90E0880F45
:101D2000991F880F991F880F991F8A838A81805C69
:101D30000E94590B19820EC08981282F30E08B81B7
:101D40009C81FC01E20FF31F80810E948909898137
:101D50008F5F89838981883078F30F900F900F907F
:101D60000F900F90CF91DF910895DF93CF9300D024
:101D70000F92CDB7DEB789836A834B838A816B81EB
:101D80000E94640E89810E9489090F900F900F9024
:101D9000CF91DF910895DF93CF93CDB7DEB727972B
:101DA0000FB6F894DEBF0FBECDBF89836A834B8325
:101DB0008B81882309F074C08981282F30E03F830C
:101DC0002E838E819F818130910559F12E813F8133
:101DD000223031052CF48E819F81009769F0D2C0AA
:101DE0002E813F812230310589F18E819F818330A0
:101DF000910509F440C0C6C0AAE3B0E0EAE3F0E010
:101E00008081482F8A81282F30E081E090E0022EE7
:101E100002C0880F991F0A94E2F7809584238C935F
:101E2000B1C0A7E3B0E0E7E3F0E08081482F8A810A
:101E3000282F30E081E090E0022E02C0880F991F29
:101E40000A94E2F7809584238C939CC0A4E3B0E0CD
:101E5000E4E3F0E08081482F8A81282F30E081E0A0
:101E600090E0022E02C0880F991F0A94E2F7809535
:101E700084238C9387C0A1E3B0E0E1E3F0E08081AC
:101E8000482F8A81282F30E081E090E0022E02C0A6
:101E9000880F991F0A94E2F7809584238C9372C06F
:101EA0008B81813009F06EC08981282F30E03D831D
:101EB0002C838C819D818130910549F12C813D815C
:101EC000223031052CF48C819D81009761F05AC03D
:101ED0002C813D812230310571F18C819D818330CF
:101EE0009105E9F14FC0AAE3B0E0EAE3F0E08081B8
:101EF000482F8A81282F30E081E090E0022E02C036
:101F0000880F991F0A94E2F7842B8C933BC0A7E3B8
:101F1000B0E0E7E3F0E08081482F8A81282F30E0AD
:101F200081E090E0022E02C0880F991F0A94E2F728
:101F3000842B8C9327C0A4E3B0E0E4E3F0E080813D
:101F4000482F8A81282F30E081E090E0022E02C0E5
:101F5000880F991F0A94E2F7842B8C9313C0A1E396
:101F6000B0E0E1E3F0E08081482F8A81282F30E063
:101F700081E090E0022E02C0880F991F0A94E2F7D8
:101F8000842B8C9327960FB6F894DEBF0FBECDBF7F
:101F9000CF91DF910895DF93CF93CDB7DEB7279729
:101FA0000FB6F894DEBF0FBECDBF89836A834B8323
:101FB0008B81813009F06FC08981282F30E03F8309
:101FC0002E838E819F818130910549F12E813F8141
:101FD000223031052CF48E819F81009761F0D2C0B0
:101FE0002E813F812230310571F18E819F818330B6
:101FF0009105E9F1C7C0ABE3B0E0EBE3F0E080812D
:10200000482F8A81282F30E081E090E0022E02C024
:10201000880F991F0A94E2F7842B8C93B3C0A8E32E
:10202000B0E0E8E3F0E08081482F8A81282F30E09B
:1020300081E090E0022E02C0880F991F0A94E2F717
:10204000842B8C939FC0A5E3B0E0E5E3F0E08081B2
:10205000482F8A81282F30E081E090E0022E02C0D4
:10206000880F991F0A94E2F7842B8C938BC0A2E30C
:10207000B0E0E2E3F0E08081482F8A81282F30E051
:1020800081E090E0022E02C0880F991F0A94E2F7C7
:10209000842B8C9377C08B81882309F073C089814E
:1020A000282F30E03D832C838C819D8181309105E8
:1020B00059F12C813D81223031052CF48C819D8198
:1020C000009769F05FC02C813D812230310589F194
:1020D0008C819D818330910509F440C053C0ABE3EE
:1020E000B0E0EBE3F0E08081482F8A81282F30E0D8
:1020F00081E090E0022E02C0880F991F0A94E2F757
:10210000809584238C933EC0A8E3B0E0E8E3F0E040
:102110008081482F8A81282F30E081E090E0022ED4
:1021200002C0880F991F0A94E2F7809584238C934C
:1021300029C0A5E3B0E0E5E3F0E08081482F8A8183
:10214000282F30E081E090E0022E02C0880F991F16
:102150000A94E2F7809584238C9314C0A2E3B0E044
:10216000E2E3F0E08081482F8A81282F30E081E08F
:1021700090E0022E02C0880F991F0A94E2F7809522
:1021800084238C9327960FB6F894DEBF0FBECDBF85
:10219000CF91DF910895DF93CF9300D000D0CDB7DA
:1021A000DEB789836A838981282F30E03C832B83C3
:1021B0008B819C8181309105D1F02B813C81223033
:1021C00031052CF48B819C81009761F01EC02B811E
:1021D0003C812230310581F08B819C8183309105D7
:1021E00081F013C0EAE3F0E08A8180830EC0E7E368
:1021F000F0E08A81808309C0E4E3F0E08A81808393
:1022000004C0E1E3F0E08A8180830F900F900F908B
:102210000F90CF91DF910895DF93CF9300D000D03E
:10222000CDB7DEB789836A838981282F30E03C836C
:102230002B838B819C8181309105D1F02B813C8156
:10224000223031052CF48B819C81009761F01EC0F7
:102250002B813C812230310581F08B819C81833040
:10226000910581F013C0EBE3F0E08A8180830EC01A
:10227000E8E3F0E08A81808309C0E5E3F0E08A8149
:10228000808304C0E2E3F0E08A8180830F900F90A6
:102290000F900F90CF91DF910895DF93CF9300D0EF
:1022A00000D0CDB7DEB789836A838981282F30E0DB
:1022B0003C832B838B819C818130910549F12B815B
:1022C0003C81223031052CF48B819C81009761F098
:1022D0005AC02B813C812230310571F18B819C8168
:1022E00083309105E9F14FC0ABE3B0E0EBE3F0E000
:1022F0008081482F8A81282F30E081E090E0022EF3
:1023000002C0880F991F0A94E2F784278C933BC080
:10231000A8E3B0E0E8E3F0E08081482F8A81282F2D
:1023200030E081E090E0022E02C0880F991F0A94ED
:10233000E2F784278C9327C0A5E3B0E0E5E3F0E063
:102340008081482F8A81282F30E081E090E0022EA2
:1023500002C0880F991F0A94E2F784278C9313C058
:10236000A2E3B0E0E2E3F0E08081482F8A81282FE9
:1023700030E081E090E0022E02C0880F991F0A949D
:10238000E2F784278C930F900F900F900F90CF91CE
:10239000DF910895DF93CF9300D000D00F92CDB797
:1023A000DEB78A836B838A81282F30E03D832C83BC
:1023B0004C815D814130510541F18C819D8182309C
:1023C000910534F42C813D812115310561F052C015
:1023D0004C815D814230510551F18C819D8183306A
:1023E0009105B9F147C0E9E3F0E08081282F30E0A2
:1023F0008B81882F90E0A90102C0559547958A9559
:10240000E2F7CA018170898335C0E6E3F0E080819C
:10241000282F30E08B81882F90E0A90102C05595CC
:1024200047958A95E2F7CA018170898323C0E3E367
:10243000F0E08081282F30E08B81882F90E0A90187
:1024400002C0559547958A95E2F7CA018170898344
:1024500011C0E0E3F0E08081282F30E08B81882FED
:1024600090E0A90102C0559547958A95E2F7CA0107
:102470008170898389810F900F900F900F900F903A
:10248000CF91DF910895DF93CF9300D0CDB7DEB722
:1024900089838981803330F089818A3318F481E01F
:1024A0008A8313C08981813630F089818B3718F493
:1024B00081E08A830AC08981813430F089818B353B
:1024C00018F481E08A8301C01A828A810F900F90EC
:1024D000CF91DF910895DF93CF9300D0CDB7DEB7D2
:1024E000898389818B3261F089818D3249F08981BC
:1024F0008A3231F089818F3219F08981843219F45E
:1025000081E08A8301C01A828A810F900F90CF9157
:10251000DF910895DF93CF9300D00F92CDB7DEB750
:10252000898389818E3529F483E090E09B838A83B7
:1025300018C089818A3219F089818F3229F482E0AA
:1025400090E09B838A830DC089818B3219F0898149
:102550008D3229F481E090E09B838A8302C01B8244
:102560001A828A819B810F900F900F90CF91DF91FB
:1025700008950F931F93DF93CF93CDB7DEB72A97BC
:102580000FB6F894DEBF0FBECDBF98878F837A87D2
:1025900069878091E1009091E20068E20E948718CB
:1025A0008F8198850E94611B9C018F819885820F85
:1025B000931F20E630E0B90142E050E00E94581B32
:1025C0001E821D821C821B822D813E818F819885F7
:1025D000FC01E20FF31F80818A83C3C08A818832A5
:1025E00041F48091E1009091E2006A810E94871895
:1025F000AAC08A810E944312882329F48A810E94FA
:102600004312882379F02B813C8189859A85FC01CE
:10261000E20FF31F8A8180838B819C8101969C83CA
:102620008B8391C08A810E946B12882309F459C060
:102630002B813C8189859A85FC01E20FF31F80E2A2
:1026400080838B819C8101969C838B838091E100A8
:102650009091E2000E94B618898315C02B813C81BD
:1026600089859A85FC01E20FF31F898180838B8124
:102670009C8101969C838B838091E1009091E20084
:102680000E94B618898389810E946B1291E0892784
:10269000882351F489810E948A128C018A810E94C8
:1026A0008A1208171907D4F68091E1009091E20090
:1026B00069810E9487188091E1009091E2006A810F
:1026C0000E9487182B813C8189859A85FC01E20F45
:1026D000F31F80E280838B819C8101969C838B8396
:1026E00032C08A81893209F58091E1009091E2003F
:1026F0000E94B618898315C02B813C8189859A85F3
:10270000FC01E20FF31F898180838B819C810196FC
:102710009C838B838091E1009091E2000E94B61827
:1027200089838981883241F70EC082E690E00E9459
:10273000C81B80915101909152010E946A1B81E057
:1027400090E00E949E1E8D819E8101969E838D83C6
:102750002D813E818F819885FC01E20FF31F8081DE
:102760008A838A81882309F039CF8091E100909192
:10277000E2000E94E318882371F082E690E00E9454
:10278000C81B80915101909152010E946A1B81E007
:1027900090E00E949E1E8091E1009091E2000E94D4
:1027A000E318882371F082E690E00E94C81B8091B4
:1027B0005101909152010E946A1B81E090E00E94B9
:1027C0009E1E8B819C8129853A85F901E80FF91FAE
:1027D00010822A960FB6F894DEBF0FBECDBFCF9100
:1027E000DF911F910F910895DF93CF93CDB7DEB79F
:1027F0002091CA003091CB00C901880F991FFC01BC
:10280000E751FF4F40815181C90101979093CB005F
:102810008093CA00CA01CF91DF910895DF93CF93CF
:1028200000D000D0CDB7DEB79C838B838091DF00D2
:102830009091E0008130910551F50E94F4139A8344
:1028400089838091CA009091CB0001969093CB0030
:102850008093CA004091CA005091CB0089819A812F
:102860009C01220F331FC901880F991F880F991FE0
:10287000280F391F8B819C81280F391FCA01880FAF
:10288000991FFC01E751FF4F3183208322C08091C3
:10289000DF009091E0000097E1F48091CA009091F0
:1028A000CB0001969093CB008093CA008091CA0020
:1028B0009091CB00880F991FFC01E751FF4F8B814E
:1028C0009C819183808381E090E09093E0008093ED
:1028D000DF000F900F900F900F90CF91DF91089530
:1028E0000F931F93DF93CF93CDB7DEB72D970FB61E
:1028F000F894DEBF0FBECDBF998788871A821982F0
:1029000081C029813A8188859985FC01E20FF31FF6
:1029100080818F838F810E944312882339F08F81B9
:10292000882F90E0C0970E940E1467C08F8180327C
:1029300029F41092E0001092DF005FC01092E000D6
:102940001092DF000E94F4139C838B830E94F41387
:102950009E838D838F81282F30E03D872C874C8587
:102960005D854B325105B1F08C859D858C3291058A
:1029700034F42C853D852A323105F1F037C04C8581
:102980005D854D32510579F08C859D858F3291059D
:1029900011F12CC08D819E812B813C81820F931F70
:1029A0000E940E142AC08D819E812B813C81821B46
:1029B000930B0E940E1421C08D819E812B813C813E
:1029C000AC01429FC001439F900D529F900D112476
:1029D0000E940E1412C08D819E812B813C81B90111
:1029E0000E943B19CB010E940E1407C08DE790E0B6
:1029F0000E94C81B1B861A861CC089819A81019679
:102A00009A83898309811A81888599850E94611B2F
:102A10000817190708F475CF8091CA009091CB0070
:102A2000880F991FFC01E751FF4F808191819B879F
:102A30008A878A859B852D960FB6F894DEBF0FBED8
:102A4000CDBFCF91DF911F910F910895DF93CF9369
:102A5000CDB7DEB70E94C80D80E060E00E94640E32
:102A60008FEF9FEF9093CB008093CA001092E0000D
:102A70001092DF008091E1009091E2000E9407191E
:102A80008091E3009091E40021EA30E0B90141E057
:102A900050E00E94581B1092DD001092DC008091E3
:102AA000E5009091E60021EA30E0B90141E050E014
:102AB0000E94581B8091E7009091E80021EA30E0E5
:102AC000B90141E050E00E94581B1092DE00CF9106
:102AD000DF9108950F931F93DF93CF93CDB7DEB7A8
:102AE000A4970FB6F894DEBF0FBECDBF82E390E08F
:102AF0000E94CF179093E2008093E1000E94450668
:102B00000E94A30580E060E00E94640E0E94D80548
:102B10008CA38CA1833619F40E942615F7CF8CA1C3
:102B20008F33A1F38CA18D3309F08FC181E08093A5
:102B3000DE008091DC009091DD000E948519909369
:102B4000E6008093E5008091DC009091DD000E941A
:102B500085199093E8008093E7001BA21AA218A29F
:102B60001F8E2AC02091E3003091E4008F8D98A140
:102B7000F901E80FF91F80818A30C9F02091E50042
:102B80003091E6008AA19BA1D901A80FB91F20911D
:102B9000E3003091E4008F8D98A1F901E80FF91F4F
:102BA00080818C938AA19BA101969BA38AA38F8D80
:102BB00098A1019698A38F8F2091DC003091DD00C1
:102BC0008F8D98A1821793076CF22091E5003091C8
:102BD000E6008AA19BA1F901E80FF91F108281E0AC
:102BE00089A31E8E1D8E62C0E091E300F091E40087
:102BF00080810E946B12882311F019A252C020918B
:102C0000E3003091E4008091DC009091DD000197B9
:102C1000F901E80FF91F80810E946B12882311F0DF
:102C200019A23FC02091E3003091E4008D8D9E8D6C
:102C3000F901E80FF91F80810E946B12982F81E043
:102C400089278823A1F42091E3003091E4008D8D41
:102C50009E8D0196F901E80FF91F80810E946B1289
:102C6000982F81E08927882311F419A21AC0209196
:102C7000E3003091E4008D8D9E8DF901E80FF91F7E
:102C800080818F3271F42091E3003091E4008D8DCA
:102C90009E8D0196F901E80FF91F8081803309F4B8
:102CA00019A28D8D9E8D01969E8F8D8F2091DC00B7
:102CB0003091DD008D8D9E8D821793070CF494CF9B
:102CC00089A1882309F440C08091E5009091E60035
:102CD0002091E7003091E800B9010E94B91281E02B
:102CE00060E00E94640E8DE30E94890981E061E04A
:102CF0000E94640E0091E7001091E8008091E700C7
:102D00009091E8000E9470149C0100D000D000D087
:102D1000EDB7FEB731961183008382EA90E093838A
:102D20008283358324830E94FD1B8DB79EB7069650
:102D30000FB6F8949EBF0FBE8DBF8091E7009091B3
:102D4000E8000E94290D08C081E060E00E94640E46
:102D500085EA90E00E94290D0E94D805982F8CA149
:102D60009817D1F380E090E0A0EAB1E4898F9A8FC0
:102D7000AB8FBC8F698D7A8D8B8D9C8D20E030E080
:102D80004AEF54E40E941F02DC01CB018D8B9E8B25
:102D9000AF8BB88F6D897E898F89988D20E030E068
:102DA00040E85FE30E94790388232CF481E090E0FF
:102DB0009C8B8B8B3FC06D897E898F89988D20E09D
:102DC0003FEF4FE757E40E94190318164CF5698D41
:102DD0007A8D8B8D9C8D20E030E040E251E40E94A2
:102DE0001F02DC01CB01BC01CD010E944900DC01C6
:102DF000CB019C8B8B8B0FC088EC90E09A8B898BDE
:102E000089899A890197F1F79A8B898B8B899C899B
:102E100001979C8B8B8B8B899C89009769F776CE69
:102E20006D897E898F89988D0E944900DC01CB01D4
:102E30009C8B8B8B8B899C89988B8F878F859889AE
:102E40000197F1F7988B8F8761CE8091DE00882300
:102E500011F00E9426158CA10E9489098091DC0046
:102E60009091DD0001969093DD008093DC0040910D
:102E7000E3005091E4008091DC009091DD009C0122
:102E8000CA01B9010E948A1A9093E4008093E3007A
:102E90002091E3003091E4008091DC009091DD000E
:102EA0000197F901E80FF91F8CA180830E94D805D2
:102EB000982F8CA19817D1F380E090E0A0EAB1E4BC
:102EC0008B879C87AD87BE876B857C858D859E852E
:102ED00020E030E04AEF54E40E941F02DC01CB0105
:102EE0008F839887A987BA876F81788589859A8526
:102EF00020E030E040E85FE30E94790388232CF46F
:102F000081E090E09E838D833FC06F8178858985C5
:102F10009A8520E03FEF4FE757E40E941903181607
:102F20004CF56B857C858D859E8520E030E040E208
:102F300051E40E941F02DC01CB01BC01CD010E94C3
:102F40004900DC01CB019E838D830FC088EC90E0AB
:102F50009C838B838B819C810197F1F79C838B836E
:102F60008D819E8101979E838D838D819E810097A7
:102F700069F7CCCD6F81788589859A850E94490053
:102F8000DC01CB019E838D838D819E819A83898311
:102F900089819A810197F1F79A838983B7CDDF936D
:102FA000CF9300D000D000D0CDB7DEB79C838B8309
:102FB00086E090E00E9485199A83898389819A81AD
:102FC000009719F41E821D8221C08B819C81880F7D
:102FD000991F0E948519E981FA8195838483E9818B
:102FE000FA8184819581009719F41E821D820EC09A
:102FF000E981FA8111821082E981FA818B819C81B9
:103000009383828389819A819E838D838D819E8122
:1030100026960FB6F894DEBF0FBECDBFCF91DF91DD
:103020000895DF93CF9300D000D0CDB7DEB79C8357
:103030008B831A82198222C0EB81FC812481358125
:1030400089819A81F901E80FF91F8081282F30E0EA
:1030500000D000D0EDB7FEB731968BEA90E09183B7
:103060008083338322830E94AC1B0F900F900F90BC
:103070000F9089819A8101969A838983EB81FC81E3
:103080002081318189819A8182179307ACF28AE08D
:1030900090E00E94C11B0F900F900F900F90CF9166
:1030A000DF910895DF93CF9300D00F92CDB7DEB7B5
:1030B0009A838983E981FA8120813181E981FA81CA
:1030C000828193811B822817390711F481E08B8359
:1030D0008B810F900F900F90CF91DF910895DF9328
:1030E000CF9300D00F92CDB7DEB79A838983E98161
:1030F000FA81808191811B82009711F481E08B839A
:103100008B810F900F900F90CF91DF910895DF93F7
:10311000CF9300D000D0CDB7DEB79A8389836B837D
:1031200089819A810E945218882311F01C8216C04E
:10313000E981FA8144815581E981FA8120813181D7
:10314000C901FA01E80FF91F8B818083C90101963B
:10315000E981FA819183808381E08C838C810F9057
:103160000F900F900F90CF91DF910895DF93CF9341
:1031700000D00F92CDB7DEB79A83898389819A8177
:103180000E946F18882311F01B8216C0E981FA8112
:1031900024813581E981FA81808191810197E981DA
:1031A000FA8191838083E981FA8180819181F9019B
:1031B000E80FF91F80818B838B810F900F900F9008
:1031C000CF91DF910895DF93CF9300D00F92CDB7C9
:1031D000DEB79A83898389819A810E946F18882338
:1031E00011F01B820DC0E981FA8124813581E981CA
:1031F000FA8180819181F901E80FF91F80818B8329
:103200008B810F900F900F90CF91DF910895DF93F6
:10321000CF9300D0CDB7DEB79A838983E981FA8155
:10322000118210820F900F90CF91DF910895DF935C
:10323000CF9300D0CDB7DEB79A838983E981FA8135
:10324000808191810F900F90CF91DF910895AA1BFB
:10325000BB1B51E107C0AA1FBB1FA617B70710F081
:10326000A61BB70B881F991F5A95A9F780959095B3
:10327000BC01CD01089597FB092E07260AD077FDE2
:1032800004D0E5DF06D000201AF4709561957F4FD9
:103290000895F6F7909581959F4F08952F923F924C
:1032A0004F925F926F927F928F929F92AF92BF9256
:1032B000CF92DF92EF92FF920F931F93CF93DF9302
:1032C000CDB7DEB7CA1BDB0B0FB6F894DEBF0FBE5F
:1032D000CDBF09942A88398848885F846E847D84AC
:1032E0008C849B84AA84B984C884DF80EE80FD80AE
:1032F0000C811B81AA81B981CE0FD11D0FB6F89424
:10330000DEBF0FBECDBFED010895CF93DF93BC01AB
:103310008230910510F462E070E0A0914F01B0910D
:103320005001ED01E0E0F0E040E050E021C0888194
:1033300099818617970769F48A819B81309719F0E4
:103340009383828304C09093500180934F01FE01C8
:1033500034C06817790738F44115510519F08417FE
:10336000950708F4AC01FE018A819B819C01E9016B
:103370002097E9F641155105A9F1CA01861B970B63
:10338000049708F4BA01E0E0F0E02AC08D919C9126
:10339000119784179507F9F46417750781F412964D
:1033A0008D919C911397309719F09383828304C079
:1033B0009093500180934F01FD0132964FC0CA0196
:1033C000861B970BFD01E80FF91F6193719302971C
:1033D0008D939C9343C0FD01828193819C01D9010F
:1033E0001097A1F680914D0190914E01892B41F4E7
:1033F0008091BA009091BB0090934E0180934D0153
:103400004091BC005091BD004115510541F44DB7AC
:103410005EB78091B8009091B900481B590B20917C
:103420004D0130914E0124173507B0F4CA01821BBB
:10343000930B8617970780F0AB014E5F5F4F8417A1
:10344000950750F0420F531F50934E0140934D018A
:10345000F9016193719302C0E0E0F0E0CF01DF91E8
:10346000CF910895CF93DF93009709F450C0EC01FA
:1034700022971B821A82A0914F01B09150011097A0
:1034800009F140E050E0AC17BD0708F1BB83AA8307
:10349000FE0121913191E20FF31FAE17BF0779F4BE
:1034A0008D919C911197280F391F2E5F3F4F3983C3
:1034B000288312968D919C9113979B838A83411543
:1034C000510571F4D0935001C0934F0120C0129662
:1034D0008D919C911397AD01009711F0DC01D3CF32
:1034E000FA01D383C28321913191E20FF31FCE17EA
:1034F000DF0769F488819981280F391F2E5F3F4FBC
:10350000FA01318320838A819B8193838283DF91B7
:10351000CF910895A0E0B0E0E0E9FAE10C945419ED
:103520008C01009729F4CB010E9485198C01BAC047
:103530009EEFE92E9FEFF92EE00EF11E5801A60E28
:10354000B71EAE14BF0408F4ABC08EEF882E8FEF09
:10355000982E8A0C9B1CE701488159814617570712
:10356000B8F04530510508F49DC0CA01049786178C
:10357000970708F497C042505040461B570BF40180
:103580005183408379836883C5010E94321A8AC0BF
:103590006B01C41AD50AE0914F01F0915001A0E0EF
:1035A000B0E0C0E0D0E042C0E815F905A1F5208107
:1035B00031812C153D0578F1C90102968C159D05C8
:1035C000A8F04E5F5F4F420F531FE70159834883B6
:1035D00022813381109729F013963C932E931297F2
:1035E00061C03093500120934F015CC022503040A5
:1035F0002C193D0931832083109729F01396FC93F1
:10360000EE93129704C0F0935001E0934F01F7013D
:103610007183608347C080819181C817D90708F4FE
:10362000EC01DF01828193819C01F901309709F05F
:10363000BBCF400F511F80914D0190914E018417D7
:103640009507E9F4C617D707D0F42091BC00309154
:10365000BD002115310541F42DB73EB78091B8006A
:103660009091B900281B390BA216B306C8F4B0928A
:103670004E01A0924D01E7017983688313C0CB010D
:103680000E948519EC01009759F0F70140815181A2
:10369000B8010E94581BC8010E94321A8E0102C054
:1036A00000E010E0C801CDB7DEB7ECE00C94701973
:1036B000FB01DC0102C001900D9241505040D8F74F
:1036C0000895FC0101900020E9F7809590958E0FF8
:1036D0009F1F0895CF93DF93EC014B8140FF1AC0E9
:1036E00046FF0AC04F7B4B838E819F8101969F834B
:1036F0008E838A81282F2BC042FF13C0E881F98175
:103700008081282F332727FD30952115310529F495
:1037100040624B832FEF3FEF1BC03196F983E88364
:1037200011C0EA85FB85CE0109959C0197FF0AC06F
:103730009B812F5F3F4F11F080E201C080E1892B18
:103740008B83E8CF8E819F8101969F838E8330E0AB
:10375000C901DF91CF910895A0E0B0E0E2EBFBE179
:103760000C945E19FE01359661917191809153011F
:1037700090915401AF010E94211C2096E2E00C942C
:103780007A1960915301709154010E94141E08959A
:103790000F931F93CF93DF938C01E0915301F0912E
:1037A0005401838181FF21C0C0E0D0E00DC0E091D1
:1037B0005301F091540120853185BF01F90109952C
:1037C000892B11F0CFEFDFEFF80181918F01882372
:1037D00071F7E0915301F0915401208531858AE021
:1037E000BF01F9010995892B11F0CFEFDFEFCE0171
:1037F000DF91CF911F910F910895AEE0B0E0E3E02B
:10380000FCE10C945C190D891E8986E08C831A8377
:1038100009838FEF9FE79E838D839E01275E3F4F35
:10382000CE0101966F89788DA9010E94211C2F81FC
:103830003885020F131FF80110822E96E4E00C94D5
:103840007819ABE0B0E0E7E2FCE10C944E193C01E2
:103850002B015A01FC0117821682838181FD03C06E
:103860006FEF7FEFC6C19AE0892E1E010894211CDC
:10387000311CF3012381F20123FD859123FF819106
:103880002F01882309F4B2C1853239F423FD8591D3
:1038900023FF81912F01853229F490E0B3010E942A
:1038A000141EE7CF982FFF24EE249924FFE1FF1583
:1038B000D0F09B3269F09C3228F4903259F0933268
:1038C00091F40EC09D3249F0903369F441E024C078
:1038D00052E0F52A84E0F82A28C098E0F92A25C0A9
:1038E000E0E1FE2A22C0F7FC29C0892F80538A30EC
:1038F00070F4F6FE05C0989C902C1124980E15C00B
:10390000E89CE02C1124E80EF0E2FF2A0EC09E3263
:1039100029F4F6FC6BC140E4F42A07C09C3619F484
:1039200050E8F52A02C0983649F4F20123FD95913A
:1039300023FF91912F01992309F0B8CF892F855446
:10394000833018F08052833038F444E050E0A40E05
:10395000B51E5FE359830FC0933631F0933779F08A
:10396000933509F056C020C0F5018081898342E07B
:1039700050E0A40EB51E610101E010E012C0F50197
:10398000C080D180F6FC03C06FEF7FEF02C0692DCD
:1039900070E042E050E0A40EB51EC6010E94091E70
:1039A0008C015FE7F52214C0F501C080D180F6FCE0
:1039B00003C06FEF7FEF02C0692D70E042E050E07E
:1039C000A40EB51EC6010E94FE1D8C0150E8F52A0A
:1039D000F3FE07C01AC080E290E0B3010E94141EFB
:1039E000EA948E2D90E008171907A8F30EC0F6018F
:1039F000F7FC8591F7FE81916F0190E0B3010E9481
:103A0000141EE110EA94015010400115110579F7D8
:103A1000EAC0943611F0993669F5F7FE08C0F50151
:103A2000208131814281538184E090E00AC0F50118
:103A3000808191819C01442737FD4095542F82E07D
:103A400090E0A80EB91E9FE6F92257FF09C05095D5
:103A50004095309521953F4F4F4F5F4FE0E8FE2A4C
:103A6000CA01B901A1012AE030E00E94401ED82E0F
:103A7000D21840C0953729F41F2D1F7E2AE030E070
:103A80001DC01F2D197F9F3661F0903720F49835A7
:103A900009F0ACC00FC0903739F0983709F0A6C0D4
:103AA00004C028E030E00AC0106114FD146020E179
:103AB00030E004C014FD166020E132E017FF08C0BA
:103AC000F501608171818281938144E050E008C0FA
:103AD000F50180819181BC0180E090E042E050E0FE
:103AE000A40EB51EA1010E94401ED82ED2188FE749
:103AF000F82EF122F6FE0BC05EEFF522D91438F451
:103B0000F4FE07C0F2FC05C08FEEF82202C01D2DA6
:103B100001C0192DF4FE0DC0FE01ED0DF11D8081D7
:103B2000803319F499EEF92208C01F5FF2FE05C038
:103B300003C08F2D867809F01F5F0F2DF3FC14C092
:103B4000F0FE0FC01E1510F09D2C0BC09D2C9E0C7E
:103B5000911A1E2D06C080E290E0B3010E94141E4F
:103B60001F5F1E15C0F304C01E1510F4E11A01C03A
:103B7000EE2404FF0FC080E390E0B3010E94141E06
:103B800002FF1DC001FD03C088E790E00EC088E57C
:103B900090E00BC0802F867891F001FF02C08BE28D
:103BA00001C080E2F7FC8DE290E0B3010E94141E98
:103BB00006C080E390E0B3010E94141E9A94D914C9
:103BC000C0F3DA94F101ED0DF11D808190E0B301B5
:103BD0000E94141EDD20A9F706C080E290E0B30128
:103BE0000E94141EEA94EE20C1F743CEF3016681D1
:103BF0007781CB012B96E2E10C946A19FC010590C8
:103C0000615070400110D8F7809590958E0F9F1FDE
:103C10000895FC016150704001900110D8F7809523
:103C200090958E0F9F1F08950F931F93CF93DF934F
:103C30008C01EB018B8181FF1BC082FF0DC02E81A7
:103C40003F818C819D812817390764F4E881F981CF
:103C50000193F983E88306C0E885F985802F0995EB
:103C6000892B31F48E819F8101969F838E8302C0C0
:103C70000FEF1FEFC801DF91CF911F910F910895B2
:103C8000FA01AA27283051F1203181F1E8946F938D
:103C90006E7F6E5F7F4F8F4F9F4FAF4FB1E03ED033
:103CA000B4E03CD0670F781F891F9A1FA11D680FD1
:103CB000791F8A1F911DA11D6A0F711D811D911D04
:103CC000A11D20D009F468943F912AE0269F112479
:103CD0003019305D3193DEF6CF010895462F4770DD
:103CE000405D4193B3E00FD0C9F7F6CF462F4F7038
:103CF000405D4A3318F0495D31FD4052419302D096
:103D0000A9F7EACFB4E0A69597958795779567953B
:103D1000BA95C9F700976105710508959B01AC013B
:103D20000A2E06945795479537952795BA95C9F762
:103D3000620F731F841F951FA01D0895F894FFCF75
:103D400029000A496E76616C696420696E6669783B
:103D50002045787072657373696F6E2E00496E70BE
:103D6000757420696E76616C6964202E2E2E206732
:103D70006976652070726F70657220696E707574F7
:103D800000002564004572726F72002563200A00EE
:103D900000000000000000002000570100000302A6
:103DA00001000405060704050607FFFF3132332B27
:0C3DB0003435362D3738392A63303D2F6A
:00000001FF
